{
  "_format": "hh-sol-artifact-1",
  "contractName": "RealEstateToken",
  "sourceName": "contracts/RealEstateToken.sol",
  "abi": [
    {
      "inputs": [
        {
          "internalType": "uint256",
          "name": "initialSupply",
          "type": "uint256"
        },
        {
          "internalType": "string",
          "name": "_propertyURI",
          "type": "string"
        }
      ],
      "stateMutability": "nonpayable",
      "type": "constructor"
    },
    {
      "inputs": [
        {
          "internalType": "address",
          "name": "spender",
          "type": "address"
        },
        {
          "internalType": "uint256",
          "name": "allowance",
          "type": "uint256"
        },
        {
          "internalType": "uint256",
          "name": "needed",
          "type": "uint256"
        }
      ],
      "name": "ERC20InsufficientAllowance",
      "type": "error"
    },
    {
      "inputs": [
        {
          "internalType": "address",
          "name": "sender",
          "type": "address"
        },
        {
          "internalType": "uint256",
          "name": "balance",
          "type": "uint256"
        },
        {
          "internalType": "uint256",
          "name": "needed",
          "type": "uint256"
        }
      ],
      "name": "ERC20InsufficientBalance",
      "type": "error"
    },
    {
      "inputs": [
        {
          "internalType": "address",
          "name": "approver",
          "type": "address"
        }
      ],
      "name": "ERC20InvalidApprover",
      "type": "error"
    },
    {
      "inputs": [
        {
          "internalType": "address",
          "name": "receiver",
          "type": "address"
        }
      ],
      "name": "ERC20InvalidReceiver",
      "type": "error"
    },
    {
      "inputs": [
        {
          "internalType": "address",
          "name": "sender",
          "type": "address"
        }
      ],
      "name": "ERC20InvalidSender",
      "type": "error"
    },
    {
      "inputs": [
        {
          "internalType": "address",
          "name": "spender",
          "type": "address"
        }
      ],
      "name": "ERC20InvalidSpender",
      "type": "error"
    },
    {
      "inputs": [
        {
          "internalType": "address",
          "name": "owner",
          "type": "address"
        }
      ],
      "name": "OwnableInvalidOwner",
      "type": "error"
    },
    {
      "inputs": [
        {
          "internalType": "address",
          "name": "account",
          "type": "address"
        }
      ],
      "name": "OwnableUnauthorizedAccount",
      "type": "error"
    },
    {
      "anonymous": false,
      "inputs": [
        {
          "indexed": true,
          "internalType": "address",
          "name": "owner",
          "type": "address"
        },
        {
          "indexed": true,
          "internalType": "address",
          "name": "spender",
          "type": "address"
        },
        {
          "indexed": false,
          "internalType": "uint256",
          "name": "value",
          "type": "uint256"
        }
      ],
      "name": "Approval",
      "type": "event"
    },
    {
      "anonymous": false,
      "inputs": [
        {
          "indexed": true,
          "internalType": "address",
          "name": "previousOwner",
          "type": "address"
        },
        {
          "indexed": true,
          "internalType": "address",
          "name": "newOwner",
          "type": "address"
        }
      ],
      "name": "OwnershipTransferred",
      "type": "event"
    },
    {
      "anonymous": false,
      "inputs": [
        {
          "indexed": true,
          "internalType": "address",
          "name": "from",
          "type": "address"
        },
        {
          "indexed": true,
          "internalType": "address",
          "name": "to",
          "type": "address"
        },
        {
          "indexed": false,
          "internalType": "uint256",
          "name": "value",
          "type": "uint256"
        }
      ],
      "name": "Transfer",
      "type": "event"
    },
    {
      "inputs": [
        {
          "internalType": "address",
          "name": "owner",
          "type": "address"
        },
        {
          "internalType": "address",
          "name": "spender",
          "type": "address"
        }
      ],
      "name": "allowance",
      "outputs": [
        {
          "internalType": "uint256",
          "name": "",
          "type": "uint256"
        }
      ],
      "stateMutability": "view",
      "type": "function"
    },
    {
      "inputs": [
        {
          "internalType": "address",
          "name": "spender",
          "type": "address"
        },
        {
          "internalType": "uint256",
          "name": "value",
          "type": "uint256"
        }
      ],
      "name": "approve",
      "outputs": [
        {
          "internalType": "bool",
          "name": "",
          "type": "bool"
        }
      ],
      "stateMutability": "nonpayable",
      "type": "function"
    },
    {
      "inputs": [
        {
          "internalType": "address",
          "name": "account",
          "type": "address"
        }
      ],
      "name": "balanceOf",
      "outputs": [
        {
          "internalType": "uint256",
          "name": "",
          "type": "uint256"
        }
      ],
      "stateMutability": "view",
      "type": "function"
    },
    {
      "inputs": [],
      "name": "decimals",
      "outputs": [
        {
          "internalType": "uint8",
          "name": "",
          "type": "uint8"
        }
      ],
      "stateMutability": "view",
      "type": "function"
    },
    {
      "inputs": [],
      "name": "getPropertyURI",
      "outputs": [
        {
          "internalType": "string",
          "name": "",
          "type": "string"
        }
      ],
      "stateMutability": "view",
      "type": "function"
    },
    {
      "inputs": [],
      "name": "name",
      "outputs": [
        {
          "internalType": "string",
          "name": "",
          "type": "string"
        }
      ],
      "stateMutability": "view",
      "type": "function"
    },
    {
      "inputs": [],
      "name": "owner",
      "outputs": [
        {
          "internalType": "address",
          "name": "",
          "type": "address"
        }
      ],
      "stateMutability": "view",
      "type": "function"
    },
    {
      "inputs": [],
      "name": "propertyURI",
      "outputs": [
        {
          "internalType": "string",
          "name": "",
          "type": "string"
        }
      ],
      "stateMutability": "view",
      "type": "function"
    },
    {
      "inputs": [],
      "name": "renounceOwnership",
      "outputs": [],
      "stateMutability": "nonpayable",
      "type": "function"
    },
    {
      "inputs": [],
      "name": "symbol",
      "outputs": [
        {
          "internalType": "string",
          "name": "",
          "type": "string"
        }
      ],
      "stateMutability": "view",
      "type": "function"
    },
    {
      "inputs": [],
      "name": "totalSupply",
      "outputs": [
        {
          "internalType": "uint256",
          "name": "",
          "type": "uint256"
        }
      ],
      "stateMutability": "view",
      "type": "function"
    },
    {
      "inputs": [
        {
          "internalType": "address",
          "name": "to",
          "type": "address"
        },
        {
          "internalType": "uint256",
          "name": "value",
          "type": "uint256"
        }
      ],
      "name": "transfer",
      "outputs": [
        {
          "internalType": "bool",
          "name": "",
          "type": "bool"
        }
      ],
      "stateMutability": "nonpayable",
      "type": "function"
    },
    {
      "inputs": [
        {
          "internalType": "address",
          "name": "from",
          "type": "address"
        },
        {
          "internalType": "address",
          "name": "to",
          "type": "address"
        },
        {
          "internalType": "uint256",
          "name": "value",
          "type": "uint256"
        }
      ],
      "name": "transferFrom",
      "outputs": [
        {
          "internalType": "bool",
          "name": "",
          "type": "bool"
        }
      ],
      "stateMutability": "nonpayable",
      "type": "function"
    },
    {
      "inputs": [
        {
          "internalType": "address",
          "name": "newOwner",
          "type": "address"
        }
      ],
      "name": "transferOwnership",
      "outputs": [],
      "stateMutability": "nonpayable",
      "type": "function"
    },
    {
      "inputs": [
        {
          "internalType": "string",
          "name": "_newURI",
          "type": "string"
        }
      ],
      "name": "updatePropertyURI",
      "outputs": [],
      "stateMutability": "nonpayable",
      "type": "function"
    }
  ],
  "bytecode": "0x60806040523480156200001157600080fd5b506040516200247e3803806200247e833981810160405281019062000037919062000701565b336040518060400160405280601181526020017f5265616c2045737461746520546f6b656e0000000000000000000000000000008152506040518060400160405280600381526020017f52455400000000000000000000000000000000000000000000000000000000008152508160039081620000b59190620009a8565b508060049081620000c79190620009a8565b505050600073ffffffffffffffffffffffffffffffffffffffff168173ffffffffffffffffffffffffffffffffffffffff16036200013f5760006040517f1e4fbdf700000000000000000000000000000000000000000000000000000000815260040162000136919062000ad4565b60405180910390fd5b6200015081620001a760201b60201c565b506200018d33620001666200026d60201b60201c565b600a62000174919062000c81565b8462000181919062000cd2565b6200027660201b60201c565b80600690816200019e9190620009a8565b50505062000dc3565b6000600560009054906101000a900473ffffffffffffffffffffffffffffffffffffffff16905081600560006101000a81548173ffffffffffffffffffffffffffffffffffffffff021916908373ffffffffffffffffffffffffffffffffffffffff1602179055508173ffffffffffffffffffffffffffffffffffffffff168173ffffffffffffffffffffffffffffffffffffffff167f8be0079c531659141344cd1fd0a4f28419497f9722a3daafe3b4186f6b6457e060405160405180910390a35050565b60006012905090565b600073ffffffffffffffffffffffffffffffffffffffff168273ffffffffffffffffffffffffffffffffffffffff1603620002eb5760006040517fec442f05000000000000000000000000000000000000000000000000000000008152600401620002e2919062000ad4565b60405180910390fd5b620002ff600083836200030360201b60201c565b5050565b600073ffffffffffffffffffffffffffffffffffffffff168373ffffffffffffffffffffffffffffffffffffffff1603620003595780600260008282546200034c919062000d1d565b925050819055506200042f565b60008060008573ffffffffffffffffffffffffffffffffffffffff1673ffffffffffffffffffffffffffffffffffffffff16815260200190815260200160002054905081811015620003e8578381836040517fe450d38c000000000000000000000000000000000000000000000000000000008152600401620003df9392919062000d69565b60405180910390fd5b8181036000808673ffffffffffffffffffffffffffffffffffffffff1673ffffffffffffffffffffffffffffffffffffffff16815260200190815260200160002081905550505b600073ffffffffffffffffffffffffffffffffffffffff168273ffffffffffffffffffffffffffffffffffffffff16036200047a5780600260008282540392505081905550620004c7565b806000808473ffffffffffffffffffffffffffffffffffffffff1673ffffffffffffffffffffffffffffffffffffffff168152602001908152602001600020600082825401925050819055505b8173ffffffffffffffffffffffffffffffffffffffff168373ffffffffffffffffffffffffffffffffffffffff167fddf252ad1be2c89b69c2b068fc378daa952ba7f163c4a11628f55a4df523b3ef8360405162000526919062000da6565b60405180910390a3505050565b6000604051905090565b600080fd5b600080fd5b6000819050919050565b6200055c8162000547565b81146200056857600080fd5b50565b6000815190506200057c8162000551565b92915050565b600080fd5b600080fd5b6000601f19601f8301169050919050565b7f4e487b7100000000000000000000000000000000000000000000000000000000600052604160045260246000fd5b620005d7826200058c565b810181811067ffffffffffffffff82111715620005f957620005f86200059d565b5b80604052505050565b60006200060e62000533565b90506200061c8282620005cc565b919050565b600067ffffffffffffffff8211156200063f576200063e6200059d565b5b6200064a826200058c565b9050602081019050919050565b60005b83811015620006775780820151818401526020810190506200065a565b60008484015250505050565b60006200069a620006948462000621565b62000602565b905082815260208101848484011115620006b957620006b862000587565b5b620006c684828562000657565b509392505050565b600082601f830112620006e657620006e562000582565b5b8151620006f884826020860162000683565b91505092915050565b600080604083850312156200071b576200071a6200053d565b5b60006200072b858286016200056b565b925050602083015167ffffffffffffffff8111156200074f576200074e62000542565b5b6200075d85828601620006ce565b9150509250929050565b600081519050919050565b7f4e487b7100000000000000000000000000000000000000000000000000000000600052602260045260246000fd5b60006002820490506001821680620007ba57607f821691505b602082108103620007d057620007cf62000772565b5b50919050565b60008190508160005260206000209050919050565b60006020601f8301049050919050565b600082821b905092915050565b6000600883026200083a7fffffffffffffffffffffffffffffffffffffffffffffffffffffffffffffffff82620007fb565b620008468683620007fb565b95508019841693508086168417925050509392505050565b6000819050919050565b600062000889620008836200087d8462000547565b6200085e565b62000547565b9050919050565b6000819050919050565b620008a58362000868565b620008bd620008b48262000890565b84845462000808565b825550505050565b600090565b620008d4620008c5565b620008e18184846200089a565b505050565b5b818110156200090957620008fd600082620008ca565b600181019050620008e7565b5050565b601f82111562000958576200092281620007d6565b6200092d84620007eb565b810160208510156200093d578190505b620009556200094c85620007eb565b830182620008e6565b50505b505050565b600082821c905092915050565b60006200097d600019846008026200095d565b1980831691505092915050565b60006200099883836200096a565b9150826002028217905092915050565b620009b38262000767565b67ffffffffffffffff811115620009cf57620009ce6200059d565b5b620009db8254620007a1565b620009e88282856200090d565b600060209050601f83116001811462000a20576000841562000a0b578287015190505b62000a1785826200098a565b86555062000a87565b601f19841662000a3086620007d6565b60005b8281101562000a5a5784890151825560018201915060208501945060208101905062000a33565b8683101562000a7a578489015162000a76601f8916826200096a565b8355505b6001600288020188555050505b505050505050565b600073ffffffffffffffffffffffffffffffffffffffff82169050919050565b600062000abc8262000a8f565b9050919050565b62000ace8162000aaf565b82525050565b600060208201905062000aeb600083018462000ac3565b92915050565b7f4e487b7100000000000000000000000000000000000000000000000000000000600052601160045260246000fd5b60008160011c9050919050565b6000808291508390505b600185111562000b7f5780860481111562000b575762000b5662000af1565b5b600185161562000b675780820291505b808102905062000b778562000b20565b945062000b37565b94509492505050565b60008262000b9a576001905062000c6d565b8162000baa576000905062000c6d565b816001811462000bc3576002811462000bce5762000c04565b600191505062000c6d565b60ff84111562000be35762000be262000af1565b5b8360020a91508482111562000bfd5762000bfc62000af1565b5b5062000c6d565b5060208310610133831016604e8410600b841016171562000c3e5782820a90508381111562000c385762000c3762000af1565b5b62000c6d565b62000c4d848484600162000b2d565b9250905081840481111562000c675762000c6662000af1565b5b81810290505b9392505050565b600060ff82169050919050565b600062000c8e8262000547565b915062000c9b8362000c74565b925062000cca7fffffffffffffffffffffffffffffffffffffffffffffffffffffffffffffffff848462000b88565b905092915050565b600062000cdf8262000547565b915062000cec8362000547565b925082820262000cfc8162000547565b9150828204841483151762000d165762000d1562000af1565b5b5092915050565b600062000d2a8262000547565b915062000d378362000547565b925082820190508082111562000d525762000d5162000af1565b5b92915050565b62000d638162000547565b82525050565b600060608201905062000d80600083018662000ac3565b62000d8f602083018562000d58565b62000d9e604083018462000d58565b949350505050565b600060208201905062000dbd600083018462000d58565b92915050565b6116ab8062000dd36000396000f3fe608060405234801561001057600080fd5b50600436106100f55760003560e01c8063715018a611610097578063a9059cbb11610066578063a9059cbb14610266578063c18549ad14610296578063dd62ed3e146102b2578063f2fde38b146102e2576100f5565b8063715018a6146102025780638da5cb5b1461020c57806395d89b411461022a5780639babbbd114610248576100f5565b806318160ddd116100d357806318160ddd1461016657806323b872dd14610184578063313ce567146101b457806370a08231146101d2576100f5565b806306fdde03146100fa578063095ea7b314610118578063133cd92214610148575b600080fd5b6101026102fe565b60405161010f9190610ef4565b60405180910390f35b610132600480360381019061012d9190610fbe565b610390565b60405161013f9190611019565b60405180910390f35b6101506103b3565b60405161015d9190610ef4565b60405180910390f35b61016e610445565b60405161017b9190611043565b60405180910390f35b61019e6004803603810190610199919061105e565b61044f565b6040516101ab9190611019565b60405180910390f35b6101bc61047e565b6040516101c991906110cd565b60405180910390f35b6101ec60048036038101906101e791906110e8565b610487565b6040516101f99190611043565b60405180910390f35b61020a6104cf565b005b6102146104e3565b6040516102219190611124565b60405180910390f35b61023261050d565b60405161023f9190610ef4565b60405180910390f35b61025061059f565b60405161025d9190610ef4565b60405180910390f35b610280600480360381019061027b9190610fbe565b61062d565b60405161028d9190611019565b60405180910390f35b6102b060048036038101906102ab9190611274565b610650565b005b6102cc60048036038101906102c791906112bd565b61066b565b6040516102d99190611043565b60405180910390f35b6102fc60048036038101906102f791906110e8565b6106f2565b005b60606003805461030d9061132c565b80601f01602080910402602001604051908101604052809291908181526020018280546103399061132c565b80156103865780601f1061035b57610100808354040283529160200191610386565b820191906000526020600020905b81548152906001019060200180831161036957829003601f168201915b5050505050905090565b60008061039b610778565b90506103a8818585610780565b600191505092915050565b6060600680546103c29061132c565b80601f01602080910402602001604051908101604052809291908181526020018280546103ee9061132c565b801561043b5780601f106104105761010080835404028352916020019161043b565b820191906000526020600020905b81548152906001019060200180831161041e57829003601f168201915b5050505050905090565b6000600254905090565b60008061045a610778565b9050610467858285610792565b610472858585610827565b60019150509392505050565b60006012905090565b60008060008373ffffffffffffffffffffffffffffffffffffffff1673ffffffffffffffffffffffffffffffffffffffff168152602001908152602001600020549050919050565b6104d761091b565b6104e160006109a2565b565b6000600560009054906101000a900473ffffffffffffffffffffffffffffffffffffffff16905090565b60606004805461051c9061132c565b80601f01602080910402602001604051908101604052809291908181526020018280546105489061132c565b80156105955780601f1061056a57610100808354040283529160200191610595565b820191906000526020600020905b81548152906001019060200180831161057857829003601f168201915b5050505050905090565b600680546105ac9061132c565b80601f01602080910402602001604051908101604052809291908181526020018280546105d89061132c565b80156106255780601f106105fa57610100808354040283529160200191610625565b820191906000526020600020905b81548152906001019060200180831161060857829003601f168201915b505050505081565b600080610638610778565b9050610645818585610827565b600191505092915050565b61065861091b565b80600690816106679190611509565b5050565b6000600160008473ffffffffffffffffffffffffffffffffffffffff1673ffffffffffffffffffffffffffffffffffffffff16815260200190815260200160002060008373ffffffffffffffffffffffffffffffffffffffff1673ffffffffffffffffffffffffffffffffffffffff16815260200190815260200160002054905092915050565b6106fa61091b565b600073ffffffffffffffffffffffffffffffffffffffff168173ffffffffffffffffffffffffffffffffffffffff160361076c5760006040517f1e4fbdf70000000000000000000000000000000000000000000000000000000081526004016107639190611124565b60405180910390fd5b610775816109a2565b50565b600033905090565b61078d8383836001610a68565b505050565b600061079e848461066b565b90507fffffffffffffffffffffffffffffffffffffffffffffffffffffffffffffffff8110156108215781811015610811578281836040517ffb8f41b2000000000000000000000000000000000000000000000000000000008152600401610808939291906115db565b60405180910390fd5b61082084848484036000610a68565b5b50505050565b600073ffffffffffffffffffffffffffffffffffffffff168373ffffffffffffffffffffffffffffffffffffffff16036108995760006040517f96c6fd1e0000000000000000000000000000000000000000000000000000000081526004016108909190611124565b60405180910390fd5b600073ffffffffffffffffffffffffffffffffffffffff168273ffffffffffffffffffffffffffffffffffffffff160361090b5760006040517fec442f050000000000000000000000000000000000000000000000000000000081526004016109029190611124565b60405180910390fd5b610916838383610c3f565b505050565b610923610778565b73ffffffffffffffffffffffffffffffffffffffff166109416104e3565b73ffffffffffffffffffffffffffffffffffffffff16146109a057610964610778565b6040517f118cdaa70000000000000000000000000000000000000000000000000000000081526004016109979190611124565b60405180910390fd5b565b6000600560009054906101000a900473ffffffffffffffffffffffffffffffffffffffff16905081600560006101000a81548173ffffffffffffffffffffffffffffffffffffffff021916908373ffffffffffffffffffffffffffffffffffffffff1602179055508173ffffffffffffffffffffffffffffffffffffffff168173ffffffffffffffffffffffffffffffffffffffff167f8be0079c531659141344cd1fd0a4f28419497f9722a3daafe3b4186f6b6457e060405160405180910390a35050565b600073ffffffffffffffffffffffffffffffffffffffff168473ffffffffffffffffffffffffffffffffffffffff1603610ada5760006040517fe602df05000000000000000000000000000000000000000000000000000000008152600401610ad19190611124565b60405180910390fd5b600073ffffffffffffffffffffffffffffffffffffffff168373ffffffffffffffffffffffffffffffffffffffff1603610b4c5760006040517f94280d62000000000000000000000000000000000000000000000000000000008152600401610b439190611124565b60405180910390fd5b81600160008673ffffffffffffffffffffffffffffffffffffffff1673ffffffffffffffffffffffffffffffffffffffff16815260200190815260200160002060008573ffffffffffffffffffffffffffffffffffffffff1673ffffffffffffffffffffffffffffffffffffffff168152602001908152602001600020819055508015610c39578273ffffffffffffffffffffffffffffffffffffffff168473ffffffffffffffffffffffffffffffffffffffff167f8c5be1e5ebec7d5bd14f71427d1e84f3dd0314c0f7b2291e5b200ac8c7c3b92584604051610c309190611043565b60405180910390a35b50505050565b600073ffffffffffffffffffffffffffffffffffffffff168373ffffffffffffffffffffffffffffffffffffffff1603610c91578060026000828254610c859190611641565b92505081905550610d64565b60008060008573ffffffffffffffffffffffffffffffffffffffff1673ffffffffffffffffffffffffffffffffffffffff16815260200190815260200160002054905081811015610d1d578381836040517fe450d38c000000000000000000000000000000000000000000000000000000008152600401610d14939291906115db565b60405180910390fd5b8181036000808673ffffffffffffffffffffffffffffffffffffffff1673ffffffffffffffffffffffffffffffffffffffff16815260200190815260200160002081905550505b600073ffffffffffffffffffffffffffffffffffffffff168273ffffffffffffffffffffffffffffffffffffffff1603610dad5780600260008282540392505081905550610dfa565b806000808473ffffffffffffffffffffffffffffffffffffffff1673ffffffffffffffffffffffffffffffffffffffff168152602001908152602001600020600082825401925050819055505b8173ffffffffffffffffffffffffffffffffffffffff168373ffffffffffffffffffffffffffffffffffffffff167fddf252ad1be2c89b69c2b068fc378daa952ba7f163c4a11628f55a4df523b3ef83604051610e579190611043565b60405180910390a3505050565b600081519050919050565b600082825260208201905092915050565b60005b83811015610e9e578082015181840152602081019050610e83565b60008484015250505050565b6000601f19601f8301169050919050565b6000610ec682610e64565b610ed08185610e6f565b9350610ee0818560208601610e80565b610ee981610eaa565b840191505092915050565b60006020820190508181036000830152610f0e8184610ebb565b905092915050565b6000604051905090565b600080fd5b600080fd5b600073ffffffffffffffffffffffffffffffffffffffff82169050919050565b6000610f5582610f2a565b9050919050565b610f6581610f4a565b8114610f7057600080fd5b50565b600081359050610f8281610f5c565b92915050565b6000819050919050565b610f9b81610f88565b8114610fa657600080fd5b50565b600081359050610fb881610f92565b92915050565b60008060408385031215610fd557610fd4610f20565b5b6000610fe385828601610f73565b9250506020610ff485828601610fa9565b9150509250929050565b60008115159050919050565b61101381610ffe565b82525050565b600060208201905061102e600083018461100a565b92915050565b61103d81610f88565b82525050565b60006020820190506110586000830184611034565b92915050565b60008060006060848603121561107757611076610f20565b5b600061108586828701610f73565b935050602061109686828701610f73565b92505060406110a786828701610fa9565b9150509250925092565b600060ff82169050919050565b6110c7816110b1565b82525050565b60006020820190506110e260008301846110be565b92915050565b6000602082840312156110fe576110fd610f20565b5b600061110c84828501610f73565b91505092915050565b61111e81610f4a565b82525050565b60006020820190506111396000830184611115565b92915050565b600080fd5b600080fd5b7f4e487b7100000000000000000000000000000000000000000000000000000000600052604160045260246000fd5b61118182610eaa565b810181811067ffffffffffffffff821117156111a05761119f611149565b5b80604052505050565b60006111b3610f16565b90506111bf8282611178565b919050565b600067ffffffffffffffff8211156111df576111de611149565b5b6111e882610eaa565b9050602081019050919050565b82818337600083830152505050565b6000611217611212846111c4565b6111a9565b90508281526020810184848401111561123357611232611144565b5b61123e8482856111f5565b509392505050565b600082601f83011261125b5761125a61113f565b5b813561126b848260208601611204565b91505092915050565b60006020828403121561128a57611289610f20565b5b600082013567ffffffffffffffff8111156112a8576112a7610f25565b5b6112b484828501611246565b91505092915050565b600080604083850312156112d4576112d3610f20565b5b60006112e285828601610f73565b92505060206112f385828601610f73565b9150509250929050565b7f4e487b7100000000000000000000000000000000000000000000000000000000600052602260045260246000fd5b6000600282049050600182168061134457607f821691505b602082108103611357576113566112fd565b5b50919050565b60008190508160005260206000209050919050565b60006020601f8301049050919050565b600082821b905092915050565b6000600883026113bf7fffffffffffffffffffffffffffffffffffffffffffffffffffffffffffffffff82611382565b6113c98683611382565b95508019841693508086168417925050509392505050565b6000819050919050565b60006114066114016113fc84610f88565b6113e1565b610f88565b9050919050565b6000819050919050565b611420836113eb565b61143461142c8261140d565b84845461138f565b825550505050565b600090565b61144961143c565b611454818484611417565b505050565b5b818110156114785761146d600082611441565b60018101905061145a565b5050565b601f8211156114bd5761148e8161135d565b61149784611372565b810160208510156114a6578190505b6114ba6114b285611372565b830182611459565b50505b505050565b600082821c905092915050565b60006114e0600019846008026114c2565b1980831691505092915050565b60006114f983836114cf565b9150826002028217905092915050565b61151282610e64565b67ffffffffffffffff81111561152b5761152a611149565b5b611535825461132c565b61154082828561147c565b600060209050601f8311600181146115735760008415611561578287015190505b61156b85826114ed565b8655506115d3565b601f1984166115818661135d565b60005b828110156115a957848901518255600182019150602085019450602081019050611584565b868310156115c657848901516115c2601f8916826114cf565b8355505b6001600288020188555050505b505050505050565b60006060820190506115f06000830186611115565b6115fd6020830185611034565b61160a6040830184611034565b949350505050565b7f4e487b7100000000000000000000000000000000000000000000000000000000600052601160045260246000fd5b600061164c82610f88565b915061165783610f88565b925082820190508082111561166f5761166e611612565b5b9291505056fea2646970667358221220b8a593d878e412fd035fbbf4c7a219a3f4139d1e1b1ddf8beea3576d4e10a9e564736f6c63430008140033",
  "linkReferences": {},
  "deployedLinkReferences": {}
}